:020000040800F2
:10000000C00C002029020008911A0008AD19000850
:100010008D1A000879040008951D000800000000F2
:10002000000000000000000000000000051B0008A8
:100030007D04000800000000011B0008091B0008E7
:10004000430200084302000843020008430200087C
:10005000430200084302000843020008430200086C
:10006000430200084302000843020008430200085C
:10007000430200084302000843020008430200084C
:10008000430200084302000843020008430200083C
:10009000430200084302000843020008430200082C
:1000A00043020008E11B0008430200084302000865
:1000B000430200084302000843020008430200080C
:1000C00043020008430200084302000843020008FC
:1000D00043020008430200084302000843020008EC
:1000E000810400084302000843020008430200089C
:1000F00043020008430200084302000843020008CC
:1001000043020008430200084302000843020008BB
:1001100043020008430200084302000843020008AB
:10012000430200084302000843020008430200089B
:100130004302000800000000000000004302000825
:10014000430200084302000843020008430200087B
:10015000430200084302000843020008430200086B
:10016000430200084302000843020008430200085B
:1001700043020008430200080000000000000000E5
:10018000430200084302000800F002F800F03CF8C7
:100190000AA090E8000C82448344AAF10107DA45E2
:1001A00001D100F031F8AFF2090EBAE80F0013F0F8
:1001B000010F18BFFB1A43F001031847A41D0000EC
:1001C000C41D0000103A24BF78C878C1FAD852077D
:1001D00024BF30C830C144BF04680C6070470000C1
:1001E0000023002400250026103A28BF78C1FBD840
:1001F000520728BF30C148BF0B6070471FB501F0E0
:1002000096FE1FBD10B510BD00F0D0F81146FFF7E7
:10021000F5FF01F06FFE00F0EEF803B4FFF7F2FF18
:1002200003BC00F0F5F80000094880470948004782
:10023000FEE7FEE7FEE7FEE7FEE7FEE7FEE7FEE796
:10024000FEE7FEE704480549054A064B70470000F3
:10025000CD1B000889010008C0000020C00C002050
:10026000C0080020C008002053EA020C00F069809A
:100270002DE9F04B4FF00006002B1FBFB3FA83F5BA
:1002800003FA05F424FA05F65E4012BF1643B2FAEB
:1002900082F502FA05F4C5F120051EBF22FA05FC1D
:1002A00044EA0C04203556EA044C4FEA144418BFC3
:1002B000641C4FF000084FF00009904271EB030CF2
:1002C00039D3002919BFB1FA81F701FA07F6B0FA5C
:1002D00080F700FA07F6C7F120071EBF20FA07FCD7
:1002E00046EA0C062037B6FBF4FCA7EB0507103FE7
:1002F00007F01F0BCBF120062CFA06F60CFA0BFBCD
:1003000044BFB3460026202FA4BF5E464FF0000B2B
:100310005BEA060C08BF4FF0010B19EB0B0948EB29
:100320000608ABFB027C06FB02CC0BFB03CCC01B1C
:1003300071EB0C01C1E70B46024641464846BDE859
:10034000F08B13B5084318BF4FF0FF300146AFF3F1
:100350000080BDE81C4070474FF0000200B5134616
:1003600094469646203922BFA0E80C50A0E80C50D5
:10037000B1F12001BFF4F7AF090728BFA0E80C5086
:1003800048BF0CC05DF804EB890028BF40F8042B7F
:1003900008BF704748BF20F8022B11F0804F18BFEC
:1003A00000F8012B7047704770477047754600F0A2
:1003B0002BF8AE4605006946534620F007008546F7
:1003C00018B020B5FFF73EFFBDE820404FF0000613
:1003D0004FF000074FF000084FF0000BAC46ACE8C0
:1003E000C009ACE8C009ACE8C009ACE8C00921F01C
:1003F00007018D46704710B50446AFF300802046D4
:10040000BDE81040FFF709BF00487047100000200A
:1004100001491820ABBEFEE726000200704700002D
:1004200080B586B00020C4F2020002904FF48071C3
:1004300003910122019200F065FA3220059000F04C
:1004400029F8029803990022049200F05BFA0598BB
:1004500000F020F8019A0298039900F053FA0598E9
:1004600000F018F802980399049A00F04BFA0598E6
:1004700000F010F806B080BDFFE7FEE7704700000F
:1004800080B54FF4806000F02DF880BD72B6FFE7B4
:10049000FEE7000080B584B0039000F04BFA0290B4
:1004A000039801900198013048B1FFE740F2040041
:1004B000C2F200000178019808440190FFE7FFE7CD
:1004C00000F038FA0299401A0199884201D2FFE7F8
:1004D000F6E704B080BD000081B0ADF8020001B0C5
:1004E0007047000080B582B0ADF8060043F61440B6
:1004F000C4F201000068BDF8061008420CD0FFE706
:10050000BDF8060043F61441C4F201010860BDF8CD
:100510000600FFF7E1FFFFE702B080BD8EB00D904F
:100520000C9100200A90099008900B90FFE70B981F
:100530000F2800F2CC81FFE70B99012088400A9038
:100540000C9800680A990840099009980A9988420D
:1005500040F0B881FFE70C98406800F003000128E4
:1005600007D0FFE70C98406800F0030002282FD165
:10057000FFE70D98806808900B984100032000FA6F
:1005800001F10898884308900C98C0680B994900BD
:1005900000FA01F108980843089008980D998860BE
:1005A0000D98406808900B99012000FA01F1089815
:1005B000884308900C984068C0F300100B9900FA2B
:1005C00001F108980843089008980D994860FFE7E2
:1005D0000C98406800F00300032818D0FFE70D983E
:1005E000C06808900B984100032000FA01F10898B8
:1005F000884308900C9880680B99490000FA01F133
:1006000008980843089008980D99C860FFE70C986F
:10061000406800F00300022826D1FFE70D980B99EF
:100620006FF0030202EA51010844006A08900B9837
:1006300000F0070081000F2000FA01F108988843BC
:1006400008900C9800690B9901F00701890000FAE5
:1006500001F108980843089008980D990B9B02EA4D
:10066000530211440862FFE70D98006808900B9848
:100670004100032000FA01F10898884308900C9883
:10068000406800F003000B99490000FA01F1089856
:100690000843089008980D9908600C9880798007A5
:1006A000002800F00E81FFE7FFE70020079043F6E7
:1006B0004400C4F20200016841F480410160006816
:1006C00000F4804007900798FFE70B9820F00300A4
:1006D00043F60801C4F20101405808900B9800F05D
:1006E000030081000F2000FA01F108988843089068
:1006F0000D980021C4F20201884203D1FFE70020D7
:1007000006905EE00D9840F20041C4F2020188427A
:1007100003D1FFE70120059050E00D9840F600015D
:10072000C4F20201884203D1FFE70220049042E0B4
:100730000D9840F60041C4F20201884203D1FFE760
:100740000320039034E00D9841F20001C4F202014D
:10075000884203D1FFE70420029026E00D9841F281
:100760000041C4F20201884203D1FFE70520019055
:1007700018E00D9841F60001C4F20201884203D14D
:10078000FFE7062000900AE00D9941F60042C4F20E
:1007900002020820914208BF07200090FFE700985E
:1007A0000190FFE701980290FFE702980390FFE7AE
:1007B00003980490FFE704980590FFE705980690DA
:1007C000FFE70698C0B20B9901F00301890000FA17
:1007D00001F108980843089008980B9921F003014B
:1007E00043F60802C4F20102885043F60840C4F2FE
:1007F00001000068089009990898884308900C98AF
:100800008079C006002805D5FFE7099908980843B4
:100810000890FFE7089843F60841C4F20101086018
:1008200043F60C40C4F2010000680890099908984A
:10083000884308900C9880798006002805D5FFE74A
:100840000999089808430890FFE7089843F60C4177
:10085000C4F20101086043F60440C4F201000068DC
:10086000089009990898884308900C988079800727
:10087000002805D5FFE70999089808430890FFE785
:10088000089843F60441C4F20101086043F60040B1
:10089000C4F20100006808900999089888430890FC
:1008A0000C988079C00728B1FFE709990898084398
:1008B0000890FFE7089843F60041C4F20101086080
:1008C000FFE7FFE7FFE70B9801300B902FE60EB034
:1008D0007047000082B00190ADF8021001980069E5
:1008E000BDF80210084204D0FFE701208DF8010096
:1008F00003E000208DF80100FFE79DF8010002B041
:100900007047000082B00190ADF802108DF8012010
:100910009DF8010028B1FFE7BDF802000199886148
:1009200005E0BDF80200000401998861FFE702B00C
:100930007047000040F2BC00C2F20000006870473F
:1009400040F20400C2F20000027840F2BC01C2F2A0
:1009500000010868104408607047000080B543F645
:100960000041C4F20201086840F4007008600868A1
:1009700040F480600860086840F4807008600320DC
:1009800000F0C0F80F2000F005F800F071F800202A
:1009900080BD000080B58CB00B90002005900490C5
:1009A000FFE70020019043F64400C4F20200016812
:1009B00041F001010160006800F001000190019820
:1009C000FFE706A803A900F0D7F900F005FA4000F8
:1009D000059005984DF68361C4F21B31A0FB01011F
:1009E0004FF0FF3000EB9140049040F27000C2F2F3
:1009F00000000021C4F20101016040F2E731C16052
:100A000004994160002101618160816100F0D2FDA3
:100A10008DF80B009DF80B0028BBFFE740F270003B
:100A2000C2F2000000F018FE8DF80B009DF80B00DC
:100A3000C0B9FFE7192000F041F80B980F280CD837
:100A4000FFE70B991920002200F042F80B9840F2C2
:100A50000801C2F20001086003E001208DF80B00DC
:100A6000FFE7FFE7FFE79DF80B000CB080BD00003B
:100A700082B0FFE70020019043F64400C4F2020078
:100A8000016841F480410160006800F480400190F9
:100A90000198FFE7FFE70020009043F64000C4F212
:100AA0000200016841F080510160006800F0805050
:100AB00000900098FFE702B07047000080B582B058
:100AC0008DF807009DF9070001F066F902B080BDBE
:100AD00080B586B08DF81700049103920020029033
:100AE00001F072F902909DF91700019002980499A3
:100AF000039A00F0CFFF0146019801F06DF906B0AE
:100B000080BD000080B582B00190019801F086F9A7
:100B100002B080BD80B584B002900191029820B9E6
:100B2000FFE701208DF80F0021E1019843F6004115
:100B3000C4F20201096801F00701884212D9FFE7F7
:100B4000019943F60040C4F202000170006800F011
:100B500007000199884204D0FFE701208DF80F00BB
:100B600005E1FFE702980078800700282AD5FFE713
:100B7000029800784007002809D5FFE743F60801EE
:100B8000C4F20201086840F4E0500860FFE70298F0
:100B900000780007002809D5FFE743F60801C4F2F2
:100BA0000201086840F460400860FFE743F608016E
:100BB000C4F20201086820F0F000029A9268104323
:100BC0000860FFE702980078C00700286ED0FFE7B2
:100BD00002984068012811D1FFE743F60000C4F2F3
:100BE0000200006800F400310020B0EB514F04D146
:100BF000FFE701208DF80F00B9E02CE00298406873
:100C0000022805D0FFE702984068032811D1FFE7CA
:100C100043F60000C4F20200006800F000710020FA
:100C2000B0EB516F04D1FFE701208DF80F009EE07B
:100C300010E043F60000C4F20200006800F0020178
:100C40000020B0EB510F04D1FFE701208DF80F0019
:100C50008DE0FFE7FFE743F60801C4F202010868F0
:100C600020F00300029A526810430860FFF762FE0A
:100C70000090FFE743F60800C4F20200006800F0AD
:100C80000C0002994968B0EB810F0ED0FFE7FFF727
:100C900051FE0099401A41F28931884204D3FFE79E
:100CA00003208DF80F0062E0E4E7FFE7019843F6C8
:100CB0000041C4F20201096801F00701884212D222
:100CC000FFE7019943F60040C4F20200017000689A
:100CD00000F007000199884204D0FFE701208DF859
:100CE0000F0044E0FFE702980078400700280CD589
:100CF000FFE743F60801C4F20201086820F4E0505F
:100D0000029AD26810430860FFE702980078000753
:100D100000280DD5FFE743F60801C4F20201086878
:100D200020F46040029A126940EAC2000860FFE7BE
:100D300000F064F843F60801C4F202010968C9B280
:100D40000A0941F64871C0F60001895CC84040F2CA
:100D50000001C2F20001086040F20800C2F2000087
:100D60000068FFF717FE00208DF80F00FFE79DF8E1
:100D70000F0004B080BD000082B001900091019985
:100D80000F20086043F60800C4F20200016801F079
:100D90000301019A5160016801F0F001019A91602C
:100DA000016801F4E051019AD160006800F46040EC
:100DB000C0080199086143F60040C4F202000068CF
:100DC00000F007000099086002B0704740F2000090
:100DD000C2F200000068704780B5FFF7F7FF43F6E6
:100DE0000801C4F20201096889B24A0B41F6587140
:100DF000C0F60001895CC84080BD000080B586B0A7
:100E00000020059004900390029043F60800C4F27D
:100E10000200006800F00C000146019140B1FFE7BC
:100E2000019804280AD0FFE7019808280CD04FE069
:100E300042F20040C0F2F40002904FE047F640005A
:100E4000C0F27D10029049E043F60400C4F20200B3
:100E5000016801F03F01059100684002002813D5A8
:100E6000FFE743F60400C4F202000068C0F38810F4
:100E700047F64001C0F27D11A0FB0101059A002355
:100E8000FFF7F2F9049012E043F60400C4F2020006
:100E90000068C0F3881042F20041C0F2F401A0FBE8
:100EA0000101059A0023FFF7DFF90490FFE743F6FD
:100EB0000400C4F20200006800F44031022000EB9C
:100EC000D130039004980399B0FBF1F0029005E053
:100ED00042F20040C0F2F4000290FFE7029806B030
:100EE00080BD000080B586B00490049820B9FFE76B
:100EF00001208DF8170050E304980078C0070028FF
:100F000000F0A580FFE743F60800C4F20200006885
:100F100000F00C00042813D0FFE743F60800C4F2E9
:100F20000200006800F00C0008281ED1FFE743F61D
:100F30000400C4F2020000684002002815D5FFE753
:100F400043F60000C4F20200006800F40031002003
:100F5000B0EB514F08D0FFE70498406820B9FFE795
:100F600001208DF8170018E370E0FFE7049840684F
:100F7000B0F5803F09D1FFE743F60001C4F202015A
:100F8000086840F48030086020E004984068B0F5BC
:100F9000A02F0DD1FFE743F60001C4F2020108685B
:100FA00040F480200860086840F4803008600CE05D
:100FB00043F60001C4F20201086820F480300860A2
:100FC000086820F480200860FFE7FFE7FFE7049847
:100FD0004068E8B1FFE7FFF7ADFC0390FFE743F699
:100FE0000000C4F20200006800F400310020B0EB01
:100FF000514F0CD1FFE7FFF79DFC0399401A65287C
:1010000004D3FFE703208DF81700C6E2E7E71CE0F2
:10101000FFF790FC0390FFE743F60000C4F20200E4
:10102000006800F400310020B0EB514F0CD0FFE716
:10103000FFF780FC0399401A652804D3FFE70320DB
:101040008DF81700A9E2E7E7FFE7FFE7FFE704985D
:1010500000788007002840F19680FFE743F60800FB
:10106000C4F20200006810F00C0F13D0FFE743F643
:101070000800C4F20200006800F00C0008282CD11F
:10108000FFE743F60400C4F20200006840020028B3
:1010900023D4FFE743F60000C4F20200006800F02A
:1010A00002010020B0EB510F09D0FFE70498C0689F
:1010B000012804D0FFE701208DF817006DE243F608
:1010C0000001C4F20201086820F0F800049A1269D5
:1010D00040EAC2000860FFE754E00498C06870B3BB
:1010E000FFE70021C4F2472101200860FFF722FC3E
:1010F0000390FFE743F60000C4F20200006800F02E
:1011000002010020B0EB510F0CD1FFE7FFF712FCFA
:101110000399401A032804D3FFE703208DF8170032
:101120003BE2E7E743F60001C4F20201086820F061
:10113000F800049A126940EAC200086021E0002128
:10114000C4F2472100200860FFF7F4FB0390FFE79B
:1011500043F60000C4F20200006800F00201002023
:10116000B0EB510F0CD0FFE7FFF7E4FB0399401AF7
:10117000032804D3FFE703208DF817000DE2E7E70B
:10118000FFE7FFE7FFE704980078000700284BD54A
:10119000FFE70498406918B3FFE740F68061C4F2A6
:1011A000472101200860FFF7C5FB0390FFE743F6E6
:1011B0007400C4F20200006800F002010020B0EBED
:1011C000510F0CD1FFE7FFF7B5FB0399401A032835
:1011D00004D3FFE703208DF81700DEE1E7E722E004
:1011E00040F68061C4F2472100200860FFF7A2FBAF
:1011F0000390FFE743F67400C4F20200006800F0B9
:1012000002010020B0EB510F0CD0FFE7FFF792FB7B
:101210000399401A032804D3FFE703208DF8170031
:10122000BBE1E7E7FFE7FFE7049800784007002805
:1012300040F1CE80FFE700208DF8070043F6400024
:10124000C4F202000068C000002815D4FFE7FFE7E1
:101250000020009043F64000C4F20200016841F013
:1012600080510160006800F0805000900098FFE716
:1012700001208DF80700FFE747F20000C4F20000EC
:101280000068C005002822D4FFE747F20001C4F23D
:101290000001086840F480700860FFF74BFB039082
:1012A000FFE747F20000C4F200000068C005002814
:1012B0000CD4FFE7FFF73EFB0399401A032804D341
:1012C000FFE703208DF8170067E1EAE7FFE7FFE794
:1012D00004988068012809D1FFE743F67001C4F241
:1012E0000201086840F0010008601FE0049880686F
:1012F00005280DD1FFE743F67001C4F2020108682A
:1013000040F004000860086840F0010008600CE04C
:1013100043F67001C4F20201086820F00100086081
:10132000086820F004000860FFE7FFE7FFE7049883
:101330008068F8B1FFE7FFF7FDFA0390FFE743F697
:101340007000C4F20200006800F002010020B0EB5F
:10135000510F0ED1FFE7FFF7EDFA0399401A41F262
:101360008931884204D3FFE703208DF8170014E188
:10137000E5E71EE0FFF7DEFA0390FFE743F67000B3
:10138000C4F20200006800F002010020B0EB510F2F
:101390000ED0FFE7FFF7CEFA0399401A41F28931E8
:1013A000884204D3FFE703208DF81700F5E0E5E756
:1013B000FFE79DF80700012809D1FFE743F6400148
:1013C000C4F20201086820F080500860FFE7FFE7E0
:1013D00004988069002800F0DC80FFE743F60800ED
:1013E000C4F20200006800F00C00082800F08580BC
:1013F000FFE70498806902285CD1FFE76021C4F20E
:10140000472100200860FFF795FA0390FFE743F6B5
:101410000000C4F20200006800F000710020B0EB90
:10142000516F0CD0FFE7FFF785FA0399401A0328A4
:1014300004D3FFE703208DF81700AEE0E7E7049937
:10144000C869D1F820C04B6A8A6A40EA0C0040EAB9
:101450008310D2034FF6FF739A43A2F580321043F4
:10146000C96A40EA016043F60401C4F2020108605F
:101470006021C4F2472101200860FFF75BFA039066
:10148000FFE743F60000C4F20200006800F00071BC
:101490000020B0EB516F0CD1FFE7FFF74BFA039937
:1014A000401A032804D3FFE703208DF8170074E0E7
:1014B000E7E721E06021C4F2472100200860FFF740
:1014C00039FA0390FFE743F60000C4F20200006817
:1014D00000F000710020B0EB516F0CD0FFE7FFF778
:1014E00029FA0399401A032804D3FFE703208DF853
:1014F000170052E0E7E7FFE74AE004988069012817
:1015000004D1FFE701208DF8170046E043F6040000
:10151000C4F202000068029004988069012831D06A
:10152000FFE7029800F480000499C969884229D134
:10153000FFE7029800F03F000499096A884221D130
:10154000FFE7029847F6C07108400499496AB0EB7A
:10155000811F17D1FFE7029800F440300499896A8F
:10156000C9034FF6FF729143A1F58031884209D13A
:10157000FFE7029800F070600499C96AB0EB016F50
:1015800004D0FFE701208DF8170006E0FFE7FFE732
:10159000FFE700208DF81700FFE79DF8170006B061
:1015A00080BD000081B0009001B0704781B0009014
:1015B00001B0704780B582B00090009820B9FFE775
:1015C00001208DF807003FE0009890F83D0040B9F9
:1015D000FFE70099002081F83C00009800F038F8FF
:1015E000FFE70099022081F83D00009951F8040BB3
:1015F00000F0FEFA0099012081F84600FFE700990B
:10160000012081F83E00009981F83F00009981F89F
:101610004000009981F84100FFE7FFE700990120B1
:1016200081F84200009981F84300009981F8440054
:10163000009981F84500FFE70099012081F83D00FD
:1016400000208DF80700FFE79DF8070002B080BD7D
:1016500081B0009001B0704783B00190019890F87C
:101660003D00012804D0FFE701208DF80B006AE05F
:101670000199022081F83D0001980168C86840F096
:101680000100C860019800680021C4F2010188428D
:101690003CD0FFE701980068B0F1804F36D0FFE7FB
:1016A0000198006840F20041C4F2000188422DD048
:1016B000FFE70198006840F60001C4F2000188428B
:1016C00024D0FFE70198006840F60041C4F2000111
:1016D00088421BD0FFE70198006840F20041C4F245
:1016E0000101884212D0FFE70198006844F200012E
:1016F000C4F20101884209D0FFE70198006841F671
:101700000001C4F20001884212D1FFE7019800688D
:10171000806800F0070000900098062807D0FFE7D7
:1017200001980168086840F001000860FFE706E0E2
:1017300001980168086840F001000860FFE7002098
:101740008DF80B00FFE79DF80B0003B07047000019
:1017500081B0009001B0704780B584B003900398C9
:101760000068C068029003980068006901909DF8C5
:1017700004008007002824D5FFE79DF808008007B3
:1017800000281DD5FFE7039801686FF0020008618B
:10179000039901200877039800688069800720B1C9
:1017A000FFE70398FFF7D4FF06E0039800F0E2F8A4
:1017B000039800F0E3F8FFE7039900200877FFE7BC
:1017C000FFE79DF804004007002825D5FFE79DF8B6
:1017D0000800400700281ED5FFE7039801686FF056
:1017E0000400086103990220087703980068806963
:1017F00010F4407F04D0FFE70398FFF7A9FF06E04D
:10180000039800F0B7F8039800F0B8F8FFE70399E1
:1018100000200877FFE7FFE79DF804000007002895
:1018200024D5FFE79DF80800000700281DD5FFE735
:10183000039801686FF00800086103990420087795
:1018400003980068C069800720B1FFE70398FFF79D
:101850007FFF06E0039800F08DF8039800F08EF803
:10186000FFE7039900200877FFE7FFE79DF80400F2
:10187000C006002825D5FFE79DF80800C00600280F
:101880001ED5FFE7039801686FF010000861039907
:101890000820087703980068C06910F4407F04D0DE
:1018A000FFE70398FFF754FF06E0039800F062F8A3
:1018B000039800F063F8FFE7039900200877FFE73B
:1018C000FFE79DF80400C00778B1FFE79DF8080026
:1018D000C00748B1FFE7039801686FF00100086195
:1018E000039800F04FF8FFE7FFE79DF804000006BB
:1018F000002810D5FFE79DF808000006002809D54C
:10190000FFE7039801686FF0800008610398FFF714
:1019100049FEFFE7FFE79DF804004006002810D5C8
:10192000FFE79DF808004006002809D5FFE7039867
:1019300001686FF040000861039800F033F8FFE79A
:10194000FFE79DF804008006002810D5FFE79DF80A
:1019500008008006002809D5FFE7039801686FF0AA
:10196000200008610398FFF721FEFFE7FFE704B0BE
:1019700080BD000081B0009001B0704781B0009040
:1019800001B0704780B582B00190019800680021D5
:10199000C4F20101884203D1FFE7FEF7D1FFFFE760
:1019A00002B080BD81B0009001B07047FFE7FEE754
:1019B00080B58EB000200D900C900B900A9009908D
:1019C000FFE70020089043F63000C4F202000168EF
:1019D00041F080010160006800F0800008900898E4
:1019E000FFE7FFE70020079043F63000C4F2020053
:1019F000016841F001010160006800F001000790FA
:101A00000798FFE7FFE70020069043F63000C4F296
:101A10000200016841F004010160006800F0040068
:101A200006900698FFE70020C4F2020001904FF4F0
:101A3000F871009100220492FEF764FF009A019869
:101A400004990992012202920A9202220B920C91AD
:101A500009A90391FEF762FD029803994FF4806291
:101A600009924FF488120A920B9040F60000C4F2DB
:101A70000200FEF753FD049A282005900521FFF788
:101A800027F80598FFF71AF80EB080BDFFE7FEE7CC
:101A9000FFE7FEE788B0079006910592079800F0EF
:101AA000070004900498C0F10700052803D3FFE75E
:101AB0000420019004E00498C0F107000190FFE7C2
:101AC0000198039004980430062803D8FFE700200B
:101AD000009003E0049803380090FFE7009802901C
:101AE00006980399012202FA01F101390840029B8C
:101AF000984005999A40013A1140084308B0704750
:101B000070470000704700007047000080B594B037
:101B100008A83021FEF720FC0020079006900590D1
:101B200004900390FFE70020029043F64000C4F2C7
:101B30000200016841F080510160006800F08050AF
:101B400002900298FFE7FFE70020019047F20000B3
:101B5000C4F20000016841F480410160006800F4B3
:101B6000804001900198FFE7012008904FF48030F9
:101B7000099002200E904FF480010F9119211091CD
:101B80004FF4A871119112900420139008A8FFF748
:101B9000A9F918B1FFE7FEF779FCFFE70F200390E2
:101BA00002200490002005904FF4A05006904FF4BE
:101BB0008050079003A80521FEF7ACFF18B1FFE79E
:101BC000FEF764FCFFE714B080BD00004EF68851BC
:101BD000CEF20001086840F4700008607047000011
:101BE00080B540F27000C2F20000FFF7B5FD80BD85
:101BF00083B0029001910298006800900298002141
:101C0000C4F20101884225D0FFE70298B0F1804F6D
:101C100020D0FFE7029840F20041C4F20001884260
:101C200018D0FFE7029840F60001C4F20001884294
:101C300010D0FFE7029840F60041C4F2000188424C
:101C400008D0FFE7029840F20041C4F20101884247
:101C50000AD1FFE7009820F07000009001984168D9
:101C6000009808430090FFE702980021C4F20101A8
:101C7000884255D0FFE70298B0F1804F50D0FFE77F
:101C8000029840F20041C4F20001884248D0FFE7C8
:101C9000029840F60001C4F20001884240D0FFE7FC
:101CA000029840F60041C4F20001884238D0FFE7B4
:101CB000029840F20041C4F20101884230D0FFE7AF
:101CC000029844F20001C4F20101884228D0FFE7E3
:101CD000029844F20041C4F20101884220D0FFE79B
:101CE000029844F60001C4F20101884218D0FFE7CF
:101CF000029841F60001C4F20001884210D0FFE7CB
:101D0000029841F60041C4F20001884208D0FFE782
:101D1000029842F20001C4F2000188420AD1FFE7B2
:101D2000009820F4407000900198C1680098084322
:101D30000090FFE7009820F080000199496908436E
:101D40000090019880680299C86201980068029921
:101D5000886202980021C4F20101884208D0FFE79E
:101D6000029840F20041C4F20101884205D1FFE728
:101D70000198006902990863FFE70299086840F03A
:101D800004000860029901204861009802990860E7
:101D900003B07047FFE7FEE781B08DF803009DF9BF
:101DA000030000280ED4FFE79DF9031001F01F0285
:101DB000012090404A094EF20011CEF2000141F894
:101DC0002200FFE701B070474EF60C50CEF2000043
:101DD0000068C0F30220704782B08DF807000091C0
:101DE0009DF9070000280AD4FFE7009800019DF93B
:101DF00007104EF20042CEF2000288540BE0009829
:101E000000019DF8071001F00F014EF61452CEF2BA
:101E100000028854FFE702B07047000083B00290D0
:101E2000029800F0070000904EF60C51CEF200012F
:101E30000868019001984FF6FF0210400190019848
:101E4000009A40EA02200022C0F2FA5210430190A8
:101E50000198086003B0704780B588B00020C4F2D4
:101E6000020004901021009101220392FEF74AFD26
:101E7000C8200790FEF70EFB0099049800220692F6
:101E8000FEF740FD0798FEF705FB039A0498202112
:101E90000191FEF737FD0798FEF7FCFA01990498C7
:101EA000069AFEF72FFD0798FEF7F4FA039A0498B6
:101EB00040210291FEF726FD0798FEF7EBFA029902
:101EC0000498069AFEF71EFD0798FEF7E3FA039AB8
:101ED000049880210591FEF715FD0798FEF7DAFAC0
:101EE00004980599069AFEF70DFD0798FEF7D2FAB9
:101EF00008B080BD80B582B000200190FEF72EFDB5
:101F0000FFF704FEFFF754FDFEF78AFAFFE7FFF73D
:101F1000A3FF40F60000C4F202004FF48061FEF718
:101F2000D9FC40F2B801C2F200010870EFE7F1EE0F
:101F3000100A4FF6FF71C0F2C03120EA010040F0F4
:101F40004070E1EE100A7047000000000000000041
:101F5000010203040607080900000000010203044F
:101F6000801F00080000002010000000C4010008CD
:101F7000901F000810000020B00C0000E0010008D5
:101F80000024F40001000000100000000000000028
:040000050800018965
:00000001FF
